:020000040000FA
:040000000128FE2FA6
:100D6C00C83400343B009B1708003B00AB1708004D
:100D7C00163021009700080071083B00960070089F
:100D8C009500080071083B00A6007008A50008003B
:100D9C003830210099009801220096010800873113
:100DAC00112786318631CE2686318631BE26863194
:100DBC008631E52686318631FB26863108003B00DC
:100DCC009C019D0171309E009F01A0019201910137
:100DDC00940193019601FA30950098017D309700AB
:100DEC009A01990148309B0008003B00AC01AD0111
:100DFC007130AE00AF01B001A201A101A401A301A9
:100E0C00A601FA30A500A8017D30A700AA01A9010E
:100E1C005830AB00080022008C010F3021008C00F0
:100E2C00073023008C0024008C012100951725002D
:100E3C008C01373026008C003F3027008C000330AB
:100E4C0022009D00080020002635F000270DF1003F
:100E5C00280DF200290DF3000030F7000130F600E8
:100E6C00E830F5004830F40087316E27873171087F
:100E7C002000A7007008A60008008631D52687310F
:100E8C0000302000A9000030A8000030A700C830B6
:100E9C00A60087312927873120002708FA00260869
:100EAC00F9007A08F1007908F0008631C226873102
:100EBC007A08F1007908F0008631C826873186312E
:100ECC00B82687318631BB26873163006B2F01280A
:100EDC002000A101F31F732F742F812FF009F1094A
:100EEC00F209F309F00A0319F10A0319F20A0319BA
:100EFC00F30AA101A10AF71F842F852F942FF4095F
:100F0C00F509F609F709F40A0319F50A0319F60AA3
:100F1C000319F70A0130F8007808A1060030A50083
:100F2C000030A4000030A3000030A200730872044B
:100F3C00710470040319A32FA42FE52FA001A00A9C
:100F4C00B22F0130F035F10DF20DF30D890BA82FF6
:100F5C000130F8007808A007F31FB52FB62FA72F84
:100F6C000130A235A30DA40DA50D890BB72F730865
:100F7C007702031DCB2F72087602031DCB2F71084D
:100F8C007502031DCB2F70087402031CCE2FCF2FBC
:100F9C00D82F7008F4027108F53B7208F63B730801
:100FAC00F73B22140130F336F20CF10CF00C890BE8
:100FBC00D92F0130A002031DE42FE52FB62F2108F5
:100FCC000319E92FEA2FF52FA209A309A409A509F2
:100FDC00A20A0319A30A0319A40A0319A50A2508CE
:100FEC00F3002408F2002308F1002208F0000800A6
:040FFC002000432F5F
:020000040001F9
:04000E00E43FFF3E8E
:00000001FF
