:040000000128FE2FA6
:100DA200FA3400342D00931708003B009B1708000B
:100DB200163021009700080071083B009600700869
:100DC2009500080038302100990098012200960110
:100DD200080002302D0094009501910192016130CA
:100DE200930008008731192786318631E326863140
:100DF2008631D92686318731032786318631EA2624
:100E0200863108003B009C019D0171309E009F01CC
:100E1200A00192019101940193019601FA3095008B
:100E220098017D3097009A01990108309B000800D3
:100E320022008C010F3021008C00073023008C002F
:100E420024008C012100951725008C0137302600E3
:100E52008C003F3027008C00603022009D0008008B
:100E620020002635F000270DF100280DF200290D93
:100E7200F3000030F7000130F600E830F5004830AA
:100E8200F40087316E27873171082000A7007008AF
:100E9200A60008008631F326873100302000A90021
:100EA2000030A8000030A700FA30A60087313127B1
:100EB200873120002708FA002608F9007A08F10095
:100EC2007908F0008631DD2687318631D6268731D2
:100ED2008631D32687316C2F01282000A101F31F10
:100EE200732F742F812FF009F109F209F309F00A27
:100EF2000319F10A0319F20A0319F30AA101A10A5B
:100F0200F71F842F852F942FF409F509F609F709A5
:100F1200F40A0319F50A0319F60A0319F70A01304C
:100F2200F8007808A1060030A5000030A4000030C7
:100F3200A3000030A2007308720471047004031944
:100F4200A32FA42FE52FA001A00AB22F0130F03564
:100F5200F10DF20DF30D890BA82F0130F80078087E
:100F6200A007F31FB52FB62FA72F0130A235A30D6F
:100F7200A40DA50D890BB72F73087702031DCB2F84
:100F820072087602031DCB2F71087502031DCB2F49
:100F920070087402031CCE2FCF2FD82F7008F402D2
:100FA2007108F53B7208F63B7308F73B22140130D7
:100FB200F336F20CF10CF00C890BD92F0130A002A0
:100FC200031DE42FE52FB62F21080319E92FEA2F7D
:100FD200F52FA209A309A409A509A20A0319A30AC4
:100FE2000319A40A0319A50A2508F3002408F2002C
:0E0FF2002308F1002208F000080020004B2F19
:020000040001F9
:08000000FF3FFF3FFF3FFF3F00
:04000E00E43FFF3E8E
:00000001FF
